:03000000020006F5
:03005F0002000399
:0300030002006296
:20006200900001E4F0A3F0900003F090000404F090000504F090000623F090000723F0900F
:20008200000823F090000923F090000A23F090000B23F090000C74FFF090000D74FCF090B0
:2000A200000E7460F090000F74DAF090001074F2F09000117466F090001274B6F0900013CF
:2000C20074BEF090001474E0F090001574FEF090001674F6F09000177411F090001823F036
:2000E200900019740CF090001A741EF090001B7435F090001C742BF090001D743FF090005A
:200102001E7422F090001F7435F0900020743FF0900001E0FEA3E0FFEE2403F582EF3400FE
:20012200F583E0F590EE240DF582EF3400F583E0F5A0EE2417F582EF3400F583E0FD74C0EE
:200142004DF5B090000174012EF0E43FA3F0900001E0FEA3E0FF900023740AF0E4A3F08EBA
:20016200828F831201B8E5828583F0900001F0E5F0A3F09003E812017D8095AF83E582908D
:200182000021F0EFA3F0900021E0FEA3E0FF8E048F051EBEFF011F900021EEF0EFA3F0EC9B
:1601A2004D600A7D707C28DDFEDCFC80E1900021EEF0EFA3F022B8
:06003500E4787FF6D8FD1F
:200013007900E94400601B7A009002D2782C75A000E493F2A308B8000205A0D9F4DAF27594
:02003300A0FF2C
:2001B800AF83E582900025F0EFA3F0900025E0FEA3E0FF33E433FD6009C3E49EFBE49FFCE3
:2001D80080048E038F04900023E0FEA3E0FF30E709C3E49EF9E49FFA80048E018F0290003D
:2001F80027E9F0EAA3F08B828C83C005120221AE82AF83D005ED600CC3E49EFCE49FFD8C77
:09021800828D83228E828F8322E5
:20022100AF83E582900029F0EFA3F090002BE4F0900029E0FEA3E0FF7D00900027E0FBA39F
:20024100E0FC235401FA7037ECCB25E0CB33FC900027EBF0ECA3F0900027E0FBA3E0FCC30D
:20026100EE9BEF9C5011ECC313CB13CBFC900027EBF0ECA3F080080D90002BEDF080BB9098
:20028100002BE0FF900029E0FDA3E0FE900027E0FBA3E0FCC3ED9BEE9C400B900029EDC3A2
:2002A1009BF0EE9CA3F0900027E0FDA3E0C313CD13CDFE900027EDF0EEA3F08F061FEE70D6
:0D02C100C3900029E0FEA3E08E82F58322A9
:20003B007800E84400600A790175A000E4F309D8FC782BE84400600C7901900001E4F0A397
:04005B00D8FCD9FAFA
:0D0006007581071202CEE58260030200033F
:0402CE007582002213
:00000001FF
